{
  "contractName": "Parking",
  "abi": [
    {
      "inputs": [],
      "payable": false,
      "stateMutability": "nonpayable",
      "type": "constructor"
    },
    {
      "anonymous": false,
      "inputs": [
        {
          "indexed": false,
          "internalType": "uint256",
          "name": "id",
          "type": "uint256"
        },
        {
          "indexed": false,
          "internalType": "string",
          "name": "position",
          "type": "string"
        },
        {
          "indexed": false,
          "internalType": "uint256",
          "name": "price",
          "type": "uint256"
        },
        {
          "indexed": false,
          "internalType": "address payable",
          "name": "owner",
          "type": "address"
        },
        {
          "indexed": false,
          "internalType": "bool",
          "name": "purchased",
          "type": "bool"
        }
      ],
      "name": "placeCreated",
      "type": "event"
    },
    {
      "anonymous": false,
      "inputs": [
        {
          "indexed": false,
          "internalType": "uint256",
          "name": "id",
          "type": "uint256"
        },
        {
          "indexed": false,
          "internalType": "string",
          "name": "position",
          "type": "string"
        },
        {
          "indexed": false,
          "internalType": "uint256",
          "name": "price",
          "type": "uint256"
        },
        {
          "indexed": false,
          "internalType": "address payable",
          "name": "owner",
          "type": "address"
        },
        {
          "indexed": false,
          "internalType": "bool",
          "name": "purchased",
          "type": "bool"
        }
      ],
      "name": "placePurchased",
      "type": "event"
    },
    {
      "constant": true,
      "inputs": [],
      "name": "name",
      "outputs": [
        {
          "internalType": "string",
          "name": "",
          "type": "string"
        }
      ],
      "payable": false,
      "stateMutability": "view",
      "type": "function"
    },
    {
      "constant": true,
      "inputs": [],
      "name": "placeCount",
      "outputs": [
        {
          "internalType": "uint256",
          "name": "",
          "type": "uint256"
        }
      ],
      "payable": false,
      "stateMutability": "view",
      "type": "function"
    },
    {
      "constant": true,
      "inputs": [
        {
          "internalType": "uint256",
          "name": "",
          "type": "uint256"
        }
      ],
      "name": "places",
      "outputs": [
        {
          "internalType": "uint256",
          "name": "id",
          "type": "uint256"
        },
        {
          "internalType": "string",
          "name": "position",
          "type": "string"
        },
        {
          "internalType": "uint256",
          "name": "price",
          "type": "uint256"
        },
        {
          "internalType": "address payable",
          "name": "owner",
          "type": "address"
        },
        {
          "internalType": "bool",
          "name": "purchased",
          "type": "bool"
        }
      ],
      "payable": false,
      "stateMutability": "view",
      "type": "function"
    },
    {
      "constant": false,
      "inputs": [
        {
          "internalType": "string",
          "name": "_position",
          "type": "string"
        },
        {
          "internalType": "uint256",
          "name": "_price",
          "type": "uint256"
        }
      ],
      "name": "createPlace",
      "outputs": [],
      "payable": false,
      "stateMutability": "nonpayable",
      "type": "function"
    },
    {
      "constant": false,
      "inputs": [
        {
          "internalType": "uint256",
          "name": "_id",
          "type": "uint256"
        }
      ],
      "name": "occupePlace",
      "outputs": [],
      "payable": true,
      "stateMutability": "payable",
      "type": "function"
    },
    {
      "constant": false,
      "inputs": [
        {
          "internalType": "uint256",
          "name": "_id",
          "type": "uint256"
        }
      ],
      "name": "rendrePlace",
      "outputs": [],
      "payable": false,
      "stateMutability": "nonpayable",
      "type": "function"
    }
  ],
  "bytecode": "0x6080604052600060025534801561001557600080fd5b506040518060400160405280601681526020017f48616d6469204e656a69204d61726b6574706c61636500000000000000000000815250600090805190602001906100619291906100bc565b50739aa2b8a1d120452a6c2d7b66262c58780dc82142600160006101000a81548173ffffffffffffffffffffffffffffffffffffffff021916908373ffffffffffffffffffffffffffffffffffffffff160217905550610161565b828054600181600116156101000203166002900490600052602060002090601f016020900481019282601f106100fd57805160ff191683800117855561012b565b8280016001018555821561012b579182015b8281111561012a57825182559160200191906001019061010f565b5b509050610138919061013c565b5090565b61015e91905b8082111561015a576000816000905550600101610142565b5090565b90565b61111b80620001716000396000f3fe6080604052600436106100555760003560e01c806306fdde031461005a578063359ad80e146100ea5780638778658a146101255780639eb2ff7e14610150578063b8e3672c14610222578063e557bb4e14610250575b600080fd5b34801561006657600080fd5b5061006f610350565b6040518080602001828103825283818151815260200191508051906020019080838360005b838110156100af578082015181840152602081019050610094565b50505050905090810190601f1680156100dc5780820380516001836020036101000a031916815260200191505b509250505060405180910390f35b3480156100f657600080fd5b506101236004803603602081101561010d57600080fd5b81019080803590602001909291905050506103ee565b005b34801561013157600080fd5b5061013a610800565b6040518082815260200191505060405180910390f35b34801561015c57600080fd5b506102206004803603604081101561017357600080fd5b810190808035906020019064010000000081111561019057600080fd5b8201836020820111156101a257600080fd5b803590602001918460018302840111640100000000831117156101c457600080fd5b91908080601f016020809104026020016040519081016040528093929190818152602001838380828437600081840152601f19601f82011690508083019250505050505050919291929080359060200190929190505050610806565b005b61024e6004803603602081101561023857600080fd5b8101908080359060200190929190505050610ab6565b005b34801561025c57600080fd5b506102896004803603602081101561027357600080fd5b8101908080359060200190929190505050610eff565b60405180868152602001806020018581526020018473ffffffffffffffffffffffffffffffffffffffff1673ffffffffffffffffffffffffffffffffffffffff16815260200183151515158152602001828103825286818151815260200191508051906020019080838360005b838110156103115780820151818401526020810190506102f6565b50505050905090810190601f16801561033e5780820380516001836020036101000a031916815260200191505b50965050505050505060405180910390f35b60008054600181600116156101000203166002900480601f0160208091040260200160405190810160405280929190818152602001828054600181600116156101000203166002900480156103e65780601f106103bb576101008083540402835291602001916103e6565b820191906000526020600020905b8154815290600101906020018083116103c957829003601f168201915b505050505081565b6103f6610ffa565b600360008381526020019081526020016000206040518060a001604052908160008201548152602001600182018054600181600116156101000203166002900480601f0160208091040260200160405190810160405280929190818152602001828054600181600116156101000203166002900480156104b75780601f1061048c576101008083540402835291602001916104b7565b820191906000526020600020905b81548152906001019060200180831161049a57829003601f168201915b50505050508152602001600282015481526020016003820160009054906101000a900473ffffffffffffffffffffffffffffffffffffffff1673ffffffffffffffffffffffffffffffffffffffff1673ffffffffffffffffffffffffffffffffffffffff1681526020016003820160149054906101000a900460ff1615151515815250509050600081600001511180156105575750600254816000015111155b61056057600080fd5b3373ffffffffffffffffffffffffffffffffffffffff16600160009054906101000a900473ffffffffffffffffffffffffffffffffffffffff1673ffffffffffffffffffffffffffffffffffffffff1614156105bb57600080fd5b80608001516105c957600080fd5b600160009054906101000a900473ffffffffffffffffffffffffffffffffffffffff16816060019073ffffffffffffffffffffffffffffffffffffffff16908173ffffffffffffffffffffffffffffffffffffffff16815250506000816080019015159081151581525050806003600084815260200190815260200160002060008201518160000155602082015181600101908051906020019061066e929190611041565b506040820151816002015560608201518160030160006101000a81548173ffffffffffffffffffffffffffffffffffffffff021916908373ffffffffffffffffffffffffffffffffffffffff16021790555060808201518160030160146101000a81548160ff0219169083151502179055509050507fdcb74db96ddc73c27b45c481836c5fd40a09382dd70f6b0ff1deb3e5443cf15660025482602001518360400151600160009054906101000a900473ffffffffffffffffffffffffffffffffffffffff16600060405180868152602001806020018581526020018473ffffffffffffffffffffffffffffffffffffffff1673ffffffffffffffffffffffffffffffffffffffff16815260200183151515158152602001828103825286818151815260200191508051906020019080838360005b838110156107be5780820151818401526020810190506107a3565b50505050905090810190601f1680156107eb5780820380516001836020036101000a031916815260200191505b50965050505050505060405180910390a15050565b60025481565b600160009054906101000a900473ffffffffffffffffffffffffffffffffffffffff1673ffffffffffffffffffffffffffffffffffffffff163373ffffffffffffffffffffffffffffffffffffffff161461086057600080fd5b600082511161086e57600080fd5b6000811161087b57600080fd5b6002600081548092919060010191905055506040518060a001604052806002548152602001838152602001828152602001600160009054906101000a900473ffffffffffffffffffffffffffffffffffffffff1673ffffffffffffffffffffffffffffffffffffffff1681526020016000151581525060036000600254815260200190815260200160002060008201518160000155602082015181600101908051906020019061092c929190611041565b506040820151816002015560608201518160030160006101000a81548173ffffffffffffffffffffffffffffffffffffffff021916908373ffffffffffffffffffffffffffffffffffffffff16021790555060808201518160030160146101000a81548160ff0219169083151502179055509050507fe4fe1f9fc021c2d235079a73a77b356df661206bdca8c6aa753a9507abb22da56002548383600160009054906101000a900473ffffffffffffffffffffffffffffffffffffffff16600060405180868152602001806020018581526020018473ffffffffffffffffffffffffffffffffffffffff1673ffffffffffffffffffffffffffffffffffffffff16815260200183151515158152602001828103825286818151815260200191508051906020019080838360005b83811015610a74578082015181840152602081019050610a59565b50505050905090810190601f168015610aa15780820380516001836020036101000a031916815260200191505b50965050505050505060405180910390a15050565b610abe610ffa565b600360008381526020019081526020016000206040518060a001604052908160008201548152602001600182018054600181600116156101000203166002900480601f016020809104026020016040519081016040528092919081815260200182805460018160011615610100020316600290048015610b7f5780601f10610b5457610100808354040283529160200191610b7f565b820191906000526020600020905b815481529060010190602001808311610b6257829003601f168201915b50505050508152602001600282015481526020016003820160009054906101000a900473ffffffffffffffffffffffffffffffffffffffff1673ffffffffffffffffffffffffffffffffffffffff1673ffffffffffffffffffffffffffffffffffffffff1681526020016003820160149054906101000a900460ff161515151581525050905060008160000151118015610c1f5750600254816000015111155b610c2857600080fd5b8060400151341015610c3957600080fd5b806080015115610c4857600080fd5b3373ffffffffffffffffffffffffffffffffffffffff16600160009054906101000a900473ffffffffffffffffffffffffffffffffffffffff1673ffffffffffffffffffffffffffffffffffffffff161415610ca357600080fd5b33816060019073ffffffffffffffffffffffffffffffffffffffff16908173ffffffffffffffffffffffffffffffffffffffff168152505060018160800190151590811515815250508060036000848152602001908152602001600020600082015181600001556020820151816001019080519060200190610d26929190611041565b506040820151816002015560608201518160030160006101000a81548173ffffffffffffffffffffffffffffffffffffffff021916908373ffffffffffffffffffffffffffffffffffffffff16021790555060808201518160030160146101000a81548160ff021916908315150217905550905050600160009054906101000a900473ffffffffffffffffffffffffffffffffffffffff1673ffffffffffffffffffffffffffffffffffffffff166108fc349081150290604051600060405180830381858888f19350505050158015610e03573d6000803e3d6000fd5b507fdcb74db96ddc73c27b45c481836c5fd40a09382dd70f6b0ff1deb3e5443cf1566002548260200151836040015133600160405180868152602001806020018581526020018473ffffffffffffffffffffffffffffffffffffffff1673ffffffffffffffffffffffffffffffffffffffff16815260200183151515158152602001828103825286818151815260200191508051906020019080838360005b83811015610ebd578082015181840152602081019050610ea2565b50505050905090810190601f168015610eea5780820380516001836020036101000a031916815260200191505b50965050505050505060405180910390a15050565b6003602052806000526040600020600091509050806000015490806001018054600181600116156101000203166002900480601f016020809104026020016040519081016040528092919081815260200182805460018160011615610100020316600290048015610fb15780601f10610f8657610100808354040283529160200191610fb1565b820191906000526020600020905b815481529060010190602001808311610f9457829003601f168201915b5050505050908060020154908060030160009054906101000a900473ffffffffffffffffffffffffffffffffffffffff16908060030160149054906101000a900460ff16905085565b6040518060a00160405280600081526020016060815260200160008152602001600073ffffffffffffffffffffffffffffffffffffffff1681526020016000151581525090565b828054600181600116156101000203166002900490600052602060002090601f016020900481019282601f1061108257805160ff19168380011785556110b0565b828001600101855582156110b0579182015b828111156110af578251825591602001919060010190611094565b5b5090506110bd91906110c1565b5090565b6110e391905b808211156110df5760008160009055506001016110c7565b5090565b9056fea265627a7a7231582038b2af29939e3b755480d22aa7431fb4f31bf90df1ad4c95f46b3744f4de6bea64736f6c634300050c0032",
  "source": "pragma solidity ^0.5.0;\r\ncontract Parking{\r\n    string public name ;\r\n    address payable parkingowner;\r\n    uint public placeCount=0;\r\n    mapping (uint => Place) public places;\r\n    struct Place {\r\n        uint id ;\r\n        string position ;\r\n        uint price ;\r\n        address payable owner;\r\n        bool purchased;\r\n    }\r\n    event placeCreated(\r\n        uint id ,\r\n        string position ,\r\n        uint price ,\r\n        address payable owner,\r\n        bool purchased\r\n    );\r\n    event placePurchased(\r\n        uint id ,\r\n        string position ,\r\n        uint price ,\r\n        address payable owner,\r\n        bool purchased\r\n    );\r\n\r\n    constructor() public {\r\n        name = \"Hamdi Neji Marketplace\";\r\n        parkingowner=0x9AA2b8a1d120452A6c2D7B66262C58780dC82142;}\r\n    function createPlace(string memory _position, uint _price )public  {\r\n        require(msg.sender==parkingowner);\r\n        require(bytes(_position).length > 0);\r\n        require( _price > 0);\r\n        placeCount++;\r\n        places [placeCount] = Place(placeCount,_position,_price,parkingowner,false);\r\n        emit placeCreated(placeCount,_position,_price,parkingowner,false);\r\n\r\n \r\n    }\r\n    function occupePlace(uint _id) public payable {\r\n        Place memory _place = places[_id];\r\n        require(_place.id>0 &&_place.id <= placeCount);\r\n        require(msg.value >= _place.price);\r\n        require(!_place.purchased);\r\n        require(parkingowner!=msg.sender);\r\n        _place.owner = msg.sender;\r\n        _place.purchased = true ;\r\n        places[_id]= _place;\r\n        address(parkingowner).transfer(msg.value);\r\n        emit placePurchased(placeCount,_place.position,_place.price,msg.sender,true);\r\n    }\r\n        function rendrePlace(uint _id) public   {\r\n         Place memory _place = places[_id];\r\n        require(_place.id>0 &&_place.id <= placeCount);\r\n        require(parkingowner!=msg.sender);\r\n        require(_place.purchased);\r\n       _place.owner=parkingowner;\r\n       _place.purchased=false;\r\n       places[_id]=_place;\r\n       emit placePurchased(placeCount,_place.position,_place.price,parkingowner,false);\r\n    }\r\n     }",
  "sourcePath": "C:/hamdi/Parking/src/contracts/Parking.sol",
  "compiler": {
    "name": "solc",
    "version": "0.5.12+commit.7709ece9.Emscripten.clang"
  },
  "schemaVersion": "3.0.19",
  "updatedAt": "2019-12-25T14:02:45.514Z",
  "networkType": "ethereum",
  "devdoc": {
    "methods": {}
  },
  "userdoc": {
    "methods": {}
  }
}